:100000000C945D000C9485000C9485000C94850084
:100010000C9485000C9485000C9485000C9485004C
:100020000C9485000C9485000C9485000C9485003C
:100030000C9485000C9485000C9485000C9485002C
:100040000C94E0010C9485000C9485000C948500C0
:100050000C9485000C9485000C9485000C9485000C
:100060000C9485000C94850000000008000201003B
:100070000003040700000000000000000000000072
:10008000250028002B0000000000240027002A0083
:10009000040404040404040402020202020203032E
:1000A0000303030301020408102040800102040836
:1000B00010200102040810204F0311241FBECFEFAF
:1000C000D8E0DEBFCDBF11E0A0E0B1E0ECE8F7E0A2
:1000D00002C005900D92A035B107D9F721E0A0E547
:1000E000B1E001C01D92A13BB207E1F710E0CDE500
:1000F000D0E004C02197FE010E94BE03CC35D10799
:10010000C9F70E942A020C94C4030C94000090E0EA
:10011000FC01EC55FF4F249180579F4FFC018491C7
:10012000882399F090E0880F991FFC01EA57FF4F50
:10013000A591B491FC01E458FF4F859194918FB73C
:10014000F894EC91E22BEC938FBF089590E0FC01C2
:10015000E859FF4F2491FC01EC55FF4F3491FC010D
:10016000E057FF4FE491EE23C9F0222339F023300A
:1001700001F1A8F4213019F1223029F1F0E0EE0F5D
:10018000FF1FE458FF4FA591B4918FB7F894EC91FD
:10019000611126C030953E233C938FBF08952730D0
:1001A000A9F02830C9F0243049F7809180008F7D74
:1001B00003C0809180008F7780938000DFCF84B56B
:1001C0008F7784BDDBCF84B58F7DFBCF8091B0006E
:1001D0008F778093B000D2CF8091B0008F7DF9CF20
:1001E0003E2BDACF3FB7F89480915501909156019C
:1001F000A0915701B091580126B5A89B05C02F3F8B
:1002000019F00196A11DB11D3FBFBA2FA92F982F3C
:100210008827BC01CD01620F711D811D911D42E037
:10022000660F771F881F991F4A95D1F708958F92FF
:100230009F92AF92BF92CF92DF92EF92FF920E9475
:10024000F2004B015C0188EEC82E83E0D82EE12C31
:10025000F12C0E94F200681979098A099B09683E0D
:10026000734081059105A8F321E0C21AD108E10885
:10027000F10888EE880E83E0981EA11CB11CC11401
:10028000D104E104F10429F7FF90EF90DF90CF90C3
:10029000BF90AF909F908F900895CF92DF92EF9292
:1002A000FF920F931F93CF93DF9300D0CDB7DEB7AC
:1002B00069834A83880F991F0091AF011091B001A3
:1002C000000F111FE9E5F1E09F012955314020178A
:1002D000310714F41192F8CF2981FC01E75AFE4F3F
:1002E00021838A81808360E08091AD010E94A60015
:1002F0001016110604F501501109F801E75AFE4FD6
:10030000E080D090AB01C090A90188E0F82E6E2D5E
:10031000661F6627661F8C2D0E94A600EE0C61E00A
:100320008D2D0E94A60060E08D2D0E94A600FA94FB
:10033000F110EDCFDDCF61E08091AD010F900F9016
:10034000DF91CF911F910F91FF90EF90DF90CF90B1
:100350000C94A600EF92FF920F931F93CF937C0112
:100360008C0183E0000F111F8A95E1F707591E4F9A
:10037000C1E0F80111928F0140E06C2FC7010E948B
:100380004D01CF5FC930A9F7CF911F910F91FF9019
:10039000EF900895462F2091AF013091B0011216D1
:1003A00013066CF48830910551F0FC01E75AFE4FBA
:1003B000608B61E0680F90E080E00C944D0108953F
:1003C0001F920F920FB60F9211242F933F938F938A
:1003D0009F93AF93BF938091510190915201A0914F
:1003E0005301B09154013091500123E0230F2D3778
:1003F00058F50196A11DB11D209350018093510124
:1004000090935201A0935301B093540180915501F0
:1004100090915601A0915701B09158010196A11DEC
:10042000B11D8093550190935601A0935701B0934D
:100430005801BF91AF919F918F913F912F910F9054
:100440000FBE0F901F90189526E8230F0296A11D4E
:10045000B11DD2CF789484B5826084BD84B58160AB
:1004600084BD85B5826085BD85B5816085BD80917F
:100470006E00816080936E001092810080918100F7
:1004800082608093810080918100816080938100EF
:10049000809180008160809380008091B1008460B1
:1004A0008093B1008091B00081608093B000809112
:1004B0007A00846080937A0080917A0082608093D1
:1004C0007A0080917A00816080937A0080917A002E
:1004D000806880937A001092C1008091AF01909162
:1004E000B0011816190634F441E06CE090E080E0A9
:1004F0000E944D018091AF019091B001181619062C
:1005000034F444E06AE090E080E00E944D01809184
:10051000AF019091B0011816190624F490E080E024
:100520000E94AA0100E010E0F0E0EF2EF1E0FF2EC3
:10053000D0E0C0E0F70161917F01CE010E94CA01C5
:100540002196C830D105B1F70E941701E8E0EE2EE0
:10055000E1E0FE2ED0E0C0E0F70161917F01CE0125
:100560000E94CA012196C830D105B1F70E94170137
:1005700070E1E72E71E0F72ED0E0C0E0F701619165
:100580007F01CE010E94CA012196C830D105B1F782
:100590000E94170168E1E62E61E0F62ED0E0C0E08F
:1005A000F70161917F01CE010E94CA012196C830F6
:1005B000D105B1F70E94170150E2E52E51E0F52E6A
:1005C000D0E0C0E0F70161917F01CE010E94CA0135
:1005D0002196C830D105B1F70E94170148E2E42EF8
:1005E00041E0F42ED0E0C0E0F70161917F01CE013F
:1005F0000E94CA012196C830D105B1F70E941701A7
:1006000030E3E32E31E0F32ED0E0C0E0F70161915A
:100610007F01CE010E94CA012196C830D105B1F7F1
:100620000E94170128E3E22E21E0F22ED0E0C0E084
:10063000F70161917F01CE010E94CA012196C83065
:10064000D105B1F70E94170190E4E92E91E0F92E4F
:10065000D0E0C0E0F70161917F01CE010E94CA01A4
:100660002196C830D105B1F70E94170188E4E82E21
:1006700081E0F82ED0E0C0E0F70161917F01CE016A
:100680000E94CA012196C830D105B1F70E94170116
:100690000115110509F448CF0E94000045CFCF9302
:1006A000DF93CBE0D0E0D093AA01C093A9018DE005
:1006B00090E09093AC018093AB018AE090E090933E
:1006C000AE018093AD0181E090E09093B001809302
:1006D000AF018BE00E9487008091AB010E948700F0
:1006E0008091AD010E94870061E08091AD010E9480
:1006F000A600D093AA01C093A901E9E6F1E0119206
:1007000081E0E93AF807D9F7D0E0C0E08091AF0185
:100710009091B001C817D90774F540E06FE0CE01A1
:100720000E944D018091AF019091B001C817D90787
:100730002CF447E06BE0CE010E944D0140E069E0FF
:10074000CE010E944D018091AF019091B001C81778
:10075000D9071CF4CE010E94AA018091AF019091AB
:10076000B001C817D9072CF440E06CE0CE010E941C
:100770004D012196CBCFDF91CF910895EE0FFF1F52
:0C0780000590F491E02D0994F894FFCF4F
:10078C00384444444444443810301010101010388D
:10079C00384404040810207C3844041804044438F9
:1007AC0008182848487C08087C40407804044438E1
:1007BC0038444078444444387C04040810202020F9
:1007CC003844443844444438384444443C04443861
:00000001FF
